{
  "address": "0x2D16EB8DFAA10a0C94eBb3Cb3a301A9EdC662574",
  "abi": [
    {
      "inputs": [
        {
          "internalType": "address",
          "name": "vrfCoordinatorV2",
          "type": "address"
        },
        {
          "internalType": "uint256",
          "name": "participationFee",
          "type": "uint256"
        },
        {
          "internalType": "bytes32",
          "name": "gasLane",
          "type": "bytes32"
        },
        {
          "internalType": "uint64",
          "name": "subscriptionId",
          "type": "uint64"
        },
        {
          "internalType": "uint32",
          "name": "callbackGasLimit",
          "type": "uint32"
        },
        {
          "internalType": "uint256",
          "name": "interval",
          "type": "uint256"
        }
      ],
      "stateMutability": "nonpayable",
      "type": "constructor"
    },
    {
      "inputs": [
        {
          "internalType": "uint256",
          "name": "currentLotteryState",
          "type": "uint256"
        },
        {
          "internalType": "uint256",
          "name": "numberParticipants",
          "type": "uint256"
        },
        {
          "internalType": "uint256",
          "name": "currentBalance",
          "type": "uint256"
        }
      ],
      "name": "Lottery__CheckUpkeepFailed",
      "type": "error"
    },
    {
      "inputs": [],
      "name": "Lottery__InsufficientParticipationFees",
      "type": "error"
    },
    {
      "inputs": [],
      "name": "Lottery__LotteryNotOpen",
      "type": "error"
    },
    {
      "inputs": [],
      "name": "Lottery__TrasnferFundsToWinnerFailed",
      "type": "error"
    },
    {
      "inputs": [
        {
          "internalType": "address",
          "name": "have",
          "type": "address"
        },
        {
          "internalType": "address",
          "name": "want",
          "type": "address"
        }
      ],
      "name": "OnlyCoordinatorCanFulfill",
      "type": "error"
    },
    {
      "anonymous": false,
      "inputs": [
        {
          "indexed": true,
          "internalType": "address",
          "name": "player",
          "type": "address"
        }
      ],
      "name": "LotteryEnter",
      "type": "event"
    },
    {
      "anonymous": false,
      "inputs": [
        {
          "indexed": true,
          "internalType": "address",
          "name": "winnerPicked",
          "type": "address"
        }
      ],
      "name": "RandomWinnerPicked",
      "type": "event"
    },
    {
      "anonymous": false,
      "inputs": [
        {
          "indexed": true,
          "internalType": "uint256",
          "name": "requestId",
          "type": "uint256"
        }
      ],
      "name": "RequestedLotteryWinner",
      "type": "event"
    },
    {
      "inputs": [
        {
          "internalType": "bytes",
          "name": "",
          "type": "bytes"
        }
      ],
      "name": "checkUpkeep",
      "outputs": [
        {
          "internalType": "bool",
          "name": "upkeepNeeded",
          "type": "bool"
        },
        {
          "internalType": "bytes",
          "name": "",
          "type": "bytes"
        }
      ],
      "stateMutability": "nonpayable",
      "type": "function"
    },
    {
      "inputs": [],
      "name": "enterLottery",
      "outputs": [],
      "stateMutability": "payable",
      "type": "function"
    },
    {
      "inputs": [],
      "name": "getInterval",
      "outputs": [
        {
          "internalType": "uint256",
          "name": "",
          "type": "uint256"
        }
      ],
      "stateMutability": "view",
      "type": "function"
    },
    {
      "inputs": [],
      "name": "getLatestTimeStamp",
      "outputs": [
        {
          "internalType": "uint256",
          "name": "",
          "type": "uint256"
        }
      ],
      "stateMutability": "view",
      "type": "function"
    },
    {
      "inputs": [],
      "name": "getLotteryState",
      "outputs": [
        {
          "internalType": "enum Lottery.LotteryState",
          "name": "",
          "type": "uint8"
        }
      ],
      "stateMutability": "view",
      "type": "function"
    },
    {
      "inputs": [],
      "name": "getNumberOfParticipants",
      "outputs": [
        {
          "internalType": "uint256",
          "name": "",
          "type": "uint256"
        }
      ],
      "stateMutability": "view",
      "type": "function"
    },
    {
      "inputs": [],
      "name": "getNumberOfWords",
      "outputs": [
        {
          "internalType": "uint256",
          "name": "",
          "type": "uint256"
        }
      ],
      "stateMutability": "pure",
      "type": "function"
    },
    {
      "inputs": [
        {
          "internalType": "uint256",
          "name": "index",
          "type": "uint256"
        }
      ],
      "name": "getParticipant",
      "outputs": [
        {
          "internalType": "address",
          "name": "",
          "type": "address"
        }
      ],
      "stateMutability": "view",
      "type": "function"
    },
    {
      "inputs": [],
      "name": "getParticipants",
      "outputs": [
        {
          "internalType": "address payable[]",
          "name": "",
          "type": "address[]"
        }
      ],
      "stateMutability": "view",
      "type": "function"
    },
    {
      "inputs": [],
      "name": "getParticipationFee",
      "outputs": [
        {
          "internalType": "uint256",
          "name": "",
          "type": "uint256"
        }
      ],
      "stateMutability": "view",
      "type": "function"
    },
    {
      "inputs": [],
      "name": "getRecentRandomWinner",
      "outputs": [
        {
          "internalType": "address",
          "name": "",
          "type": "address"
        }
      ],
      "stateMutability": "view",
      "type": "function"
    },
    {
      "inputs": [],
      "name": "getRequestConfirmations",
      "outputs": [
        {
          "internalType": "uint256",
          "name": "",
          "type": "uint256"
        }
      ],
      "stateMutability": "pure",
      "type": "function"
    },
    {
      "inputs": [
        {
          "internalType": "bytes",
          "name": "",
          "type": "bytes"
        }
      ],
      "name": "performUpkeep",
      "outputs": [],
      "stateMutability": "nonpayable",
      "type": "function"
    },
    {
      "inputs": [
        {
          "internalType": "uint256",
          "name": "requestId",
          "type": "uint256"
        },
        {
          "internalType": "uint256[]",
          "name": "randomWords",
          "type": "uint256[]"
        }
      ],
      "name": "rawFulfillRandomWords",
      "outputs": [],
      "stateMutability": "nonpayable",
      "type": "function"
    },
    {
      "inputs": [],
      "name": "requestRandomWinner",
      "outputs": [],
      "stateMutability": "nonpayable",
      "type": "function"
    }
  ],
  "transactionHash": "0x8dfd280d18b3ec2a2d516020aa528ddd53c95fea7229f32052d86a5ef98dfdb9",
  "args": [
    "0x2Ca8E0C643bDe4C2E08ab1fA0da3401AdAD7734D",
    "10000000000000000",
    "0x79d3d8832d904592c0bf9818b621522c988bb8b0c05cdc3b15aea1b6e8db0c15",
    "4688",
    "2500000",
    "30"
  ],
  "numDeployments": 2,
  "solcInputHash": "df854bbf9b39c88fbf796ed623e9f1c1",
  "bytecode": "0x6101606040523480156200001257600080fd5b5060405162001ba938038062001ba98339818101604052810190620000389190620002a0565b858073ffffffffffffffffffffffffffffffffffffffff1660808173ffffffffffffffffffffffffffffffffffffffff1660601b81525050508460a081815250508573ffffffffffffffffffffffffffffffffffffffff1660c08173ffffffffffffffffffffffffffffffffffffffff1660601b815250508360e081815250508267ffffffffffffffff166101008167ffffffffffffffff1660c01b815250508163ffffffff166101208163ffffffff1660e01b815250506000600160146101000a81548160ff021916908360028111156200011957620001186200033c565b5b0217905550426002819055508061014081815250505050505050506200036b565b600080fd5b600073ffffffffffffffffffffffffffffffffffffffff82169050919050565b60006200016c826200013f565b9050919050565b6200017e816200015f565b81146200018a57600080fd5b50565b6000815190506200019e8162000173565b92915050565b6000819050919050565b620001b981620001a4565b8114620001c557600080fd5b50565b600081519050620001d981620001ae565b92915050565b6000819050919050565b620001f481620001df565b81146200020057600080fd5b50565b6000815190506200021481620001e9565b92915050565b600067ffffffffffffffff82169050919050565b62000239816200021a565b81146200024557600080fd5b50565b60008151905062000259816200022e565b92915050565b600063ffffffff82169050919050565b6200027a816200025f565b81146200028657600080fd5b50565b6000815190506200029a816200026f565b92915050565b60008060008060008060c08789031215620002c057620002bf6200013a565b5b6000620002d089828a016200018d565b9650506020620002e389828a01620001c8565b9550506040620002f689828a0162000203565b94505060606200030989828a0162000248565b93505060806200031c89828a0162000289565b92505060a06200032f89828a01620001c8565b9150509295509295509295565b7f4e487b7100000000000000000000000000000000000000000000000000000000600052602160045260246000fd5b60805160601c60a05160c05160601c60e0516101005160c01c6101205160e01c610140516117a6620004036000396000818161090e01526109a50152600081816105d001526107460152600081816105ad015261072301526000818161058c015261070201526000818161055001526106c601526000818161097d01526109cb0152600081816103d1015261042501526117a66000f3fe6080604052600436106100e85760003560e01c80635f1b0fd81161008a578063863fc11e11610059578063863fc11e146102d357806391ad27b4146102fe578063c1af578514610329578063c80c28a214610333576100e8565b80635f1b0fd8146102145780636b68c03c1461023f5780636e04ff0d1461026a5780636f9d9c84146102a8576100e8565b8063320229eb116100c6578063320229eb1461017e5780634585e33b146101a9578063522a1f0b146101d25780635aa68ac0146101e9576100e8565b80630124cbff146100ed5780631b9db2ef146101185780631fe543e314610155575b600080fd5b3480156100f957600080fd5b5061010261035e565b60405161010f9190610e5d565b60405180910390f35b34801561012457600080fd5b5061013f600480360381019061013a9190610ec2565b610388565b60405161014c9190610e5d565b60405180910390f35b34801561016157600080fd5b5061017c60048036038101906101779190611048565b6103cf565b005b34801561018a57600080fd5b5061019361048f565b6040516101a091906110b3565b60405180910390f35b3480156101b557600080fd5b506101d060048036038101906101cb9190611129565b610499565b005b3480156101de57600080fd5b506101e7610698565b005b3480156101f557600080fd5b506101fe61080b565b60405161020b9190611246565b60405180910390f35b34801561022057600080fd5b50610229610899565b60405161023691906110b3565b60405180910390f35b34801561024b57600080fd5b506102546108a6565b60405161026191906112df565b60405180910390f35b34801561027657600080fd5b50610291600480360381019061028c91906113af565b6108bd565b60405161029f92919061149b565b60405180910390f35b3480156102b457600080fd5b506102bd61096a565b6040516102ca91906110b3565b60405180910390f35b3480156102df57600080fd5b506102e8610979565b6040516102f591906110b3565b60405180910390f35b34801561030a57600080fd5b506103136109a1565b60405161032091906110b3565b60405180910390f35b6103316109c9565b005b34801561033f57600080fd5b50610348610b38565b60405161035591906110b3565b60405180910390f35b6000600160009054906101000a900473ffffffffffffffffffffffffffffffffffffffff16905090565b600080828154811061039d5761039c6114cb565b5b9060005260206000200160009054906101000a900473ffffffffffffffffffffffffffffffffffffffff169050919050565b7f000000000000000000000000000000000000000000000000000000000000000073ffffffffffffffffffffffffffffffffffffffff163373ffffffffffffffffffffffffffffffffffffffff161461048157337f00000000000000000000000000000000000000000000000000000000000000006040517f1cf993f40000000000000000000000000000000000000000000000000000000081526004016104789291906114fa565b60405180910390fd5b61048b8282610b44565b5050565b6000600254905090565b60006104b3604051806020016040528060008152506108bd565b5090508061052257600160149054906101000a900460ff1660028111156104dd576104dc611268565b5b600080549050476040517ff62d55c200000000000000000000000000000000000000000000000000000000815260040161051993929190611523565b60405180910390fd5b60018060146101000a81548160ff0219169083600281111561054757610546611268565b5b021790555060007f000000000000000000000000000000000000000000000000000000000000000073ffffffffffffffffffffffffffffffffffffffff16635d3b1d307f00000000000000000000000000000000000000000000000000000000000000007f000000000000000000000000000000000000000000000000000000000000000060037f000000000000000000000000000000000000000000000000000000000000000060016040518663ffffffff1660e01b81526004016106119594939291906115d2565b602060405180830381600087803b15801561062b57600080fd5b505af115801561063f573d6000803e3d6000fd5b505050506040513d601f19601f82011682018060405250810190610663919061163a565b9050807febf56642252004c18a776f30d528e7a0ce8c5db14b6596fb6550f630c8a24c6c60405160405180910390a250505050565b60018060146101000a81548160ff021916908360028111156106bd576106bc611268565b5b021790555060007f000000000000000000000000000000000000000000000000000000000000000073ffffffffffffffffffffffffffffffffffffffff16635d3b1d307f00000000000000000000000000000000000000000000000000000000000000007f000000000000000000000000000000000000000000000000000000000000000060037f000000000000000000000000000000000000000000000000000000000000000060016040518663ffffffff1660e01b81526004016107879594939291906115d2565b602060405180830381600087803b1580156107a157600080fd5b505af11580156107b5573d6000803e3d6000fd5b505050506040513d601f19601f820116820180604052508101906107d9919061163a565b9050807febf56642252004c18a776f30d528e7a0ce8c5db14b6596fb6550f630c8a24c6c60405160405180910390a250565b6060600080548060200260200160405190810160405280929190818152602001828054801561088f57602002820191906000526020600020905b8160009054906101000a900473ffffffffffffffffffffffffffffffffffffffff1673ffffffffffffffffffffffffffffffffffffffff1681526020019060010190808311610845575b5050505050905090565b6000600361ffff16905090565b6000600160149054906101000a900460ff16905090565b600060606000600160149054906101000a900460ff1660028111156108e5576108e4611268565b5b600060028111156108f9576108f8611268565b5b14905060006002544261090c9190611696565b7f00000000000000000000000000000000000000000000000000000000000000001090506000806000805490501190506000804711905083801561094d5750825b80156109565750815b801561095f5750805b955050505050915091565b6000600163ffffffff16905090565b60007f0000000000000000000000000000000000000000000000000000000000000000905090565b60007f0000000000000000000000000000000000000000000000000000000000000000905090565b7f0000000000000000000000000000000000000000000000000000000000000000341015610a23576040517fd09adbcc00000000000000000000000000000000000000000000000000000000815260040160405180910390fd5b60006002811115610a3757610a36611268565b5b600160149054906101000a900460ff166002811115610a5957610a58611268565b5b14610a90576040517f823ea8bb00000000000000000000000000000000000000000000000000000000815260040160405180910390fd5b6000339080600181540180825580915050600190039060005260206000200160009091909190916101000a81548173ffffffffffffffffffffffffffffffffffffffff021916908373ffffffffffffffffffffffffffffffffffffffff1602179055503373ffffffffffffffffffffffffffffffffffffffff167f1d64fb5ba9f2548c5b98468d58f25b87b9e866afee0122e92d9fe722bf85076c60405160405180910390a2565b60008080549050905090565b6000808054905082600081518110610b5f57610b5e6114cb565b5b6020026020010151610b7191906116f9565b90506000808281548110610b8857610b876114cb565b5b9060005260206000200160009054906101000a900473ffffffffffffffffffffffffffffffffffffffff16905080600160006101000a81548173ffffffffffffffffffffffffffffffffffffffff021916908373ffffffffffffffffffffffffffffffffffffffff1602179055506000600160146101000a81548160ff02191690836002811115610c1c57610c1b611268565b5b0217905550600067ffffffffffffffff811115610c3c57610c3b610f05565b5b604051908082528060200260200182016040528015610c6a5781602001602082028036833780820191505090505b5060009080519060200190610c80929190610d75565b504260028190555060008173ffffffffffffffffffffffffffffffffffffffff1647604051610cae9061175b565b60006040518083038185875af1925050503d8060008114610ceb576040519150601f19603f3d011682016040523d82523d6000602084013e610cf0565b606091505b5050905080610d2b576040517f1ef894bd00000000000000000000000000000000000000000000000000000000815260040160405180910390fd5b8173ffffffffffffffffffffffffffffffffffffffff167fae47ec692e756c09d0aabe93cd92dc227fb7a1ef07b289b9dc64befcff27945a60405160405180910390a25050505050565b828054828255906000526020600020908101928215610dee579160200282015b82811115610ded5782518260006101000a81548173ffffffffffffffffffffffffffffffffffffffff021916908373ffffffffffffffffffffffffffffffffffffffff16021790555091602001919060010190610d95565b5b509050610dfb9190610dff565b5090565b5b80821115610e18576000816000905550600101610e00565b5090565b600073ffffffffffffffffffffffffffffffffffffffff82169050919050565b6000610e4782610e1c565b9050919050565b610e5781610e3c565b82525050565b6000602082019050610e726000830184610e4e565b92915050565b6000604051905090565b600080fd5b600080fd5b6000819050919050565b610e9f81610e8c565b8114610eaa57600080fd5b50565b600081359050610ebc81610e96565b92915050565b600060208284031215610ed857610ed7610e82565b5b6000610ee684828501610ead565b91505092915050565b600080fd5b6000601f19601f8301169050919050565b7f4e487b7100000000000000000000000000000000000000000000000000000000600052604160045260246000fd5b610f3d82610ef4565b810181811067ffffffffffffffff82111715610f5c57610f5b610f05565b5b80604052505050565b6000610f6f610e78565b9050610f7b8282610f34565b919050565b600067ffffffffffffffff821115610f9b57610f9a610f05565b5b602082029050602081019050919050565b600080fd5b6000610fc4610fbf84610f80565b610f65565b90508083825260208201905060208402830185811115610fe757610fe6610fac565b5b835b818110156110105780610ffc8882610ead565b845260208401935050602081019050610fe9565b5050509392505050565b600082601f83011261102f5761102e610eef565b5b813561103f848260208601610fb1565b91505092915050565b6000806040838503121561105f5761105e610e82565b5b600061106d85828601610ead565b925050602083013567ffffffffffffffff81111561108e5761108d610e87565b5b61109a8582860161101a565b9150509250929050565b6110ad81610e8c565b82525050565b60006020820190506110c860008301846110a4565b92915050565b600080fd5b60008083601f8401126110e9576110e8610eef565b5b8235905067ffffffffffffffff811115611106576111056110ce565b5b60208301915083600182028301111561112257611121610fac565b5b9250929050565b600080602083850312156111405761113f610e82565b5b600083013567ffffffffffffffff81111561115e5761115d610e87565b5b61116a858286016110d3565b92509250509250929050565b600081519050919050565b600082825260208201905092915050565b6000819050602082019050919050565b60006111ad82610e1c565b9050919050565b6111bd816111a2565b82525050565b60006111cf83836111b4565b60208301905092915050565b6000602082019050919050565b60006111f382611176565b6111fd8185611181565b935061120883611192565b8060005b8381101561123957815161122088826111c3565b975061122b836111db565b92505060018101905061120c565b5085935050505092915050565b6000602082019050818103600083015261126081846111e8565b905092915050565b7f4e487b7100000000000000000000000000000000000000000000000000000000600052602160045260246000fd5b600381106112a8576112a7611268565b5b50565b60008190506112b982611297565b919050565b60006112c9826112ab565b9050919050565b6112d9816112be565b82525050565b60006020820190506112f460008301846112d0565b92915050565b600080fd5b600067ffffffffffffffff82111561131a57611319610f05565b5b61132382610ef4565b9050602081019050919050565b82818337600083830152505050565b600061135261134d846112ff565b610f65565b90508281526020810184848401111561136e5761136d6112fa565b5b611379848285611330565b509392505050565b600082601f83011261139657611395610eef565b5b81356113a684826020860161133f565b91505092915050565b6000602082840312156113c5576113c4610e82565b5b600082013567ffffffffffffffff8111156113e3576113e2610e87565b5b6113ef84828501611381565b91505092915050565b60008115159050919050565b61140d816113f8565b82525050565b600081519050919050565b600082825260208201905092915050565b60005b8381101561144d578082015181840152602081019050611432565b8381111561145c576000848401525b50505050565b600061146d82611413565b611477818561141e565b935061148781856020860161142f565b61149081610ef4565b840191505092915050565b60006040820190506114b06000830185611404565b81810360208301526114c28184611462565b90509392505050565b7f4e487b7100000000000000000000000000000000000000000000000000000000600052603260045260246000fd5b600060408201905061150f6000830185610e4e565b61151c6020830184610e4e565b9392505050565b600060608201905061153860008301866110a4565b61154560208301856110a4565b61155260408301846110a4565b949350505050565b6000819050919050565b61156d8161155a565b82525050565b600067ffffffffffffffff82169050919050565b61159081611573565b82525050565b600061ffff82169050919050565b6115ad81611596565b82525050565b600063ffffffff82169050919050565b6115cc816115b3565b82525050565b600060a0820190506115e76000830188611564565b6115f46020830187611587565b61160160408301866115a4565b61160e60608301856115c3565b61161b60808301846115c3565b9695505050505050565b60008151905061163481610e96565b92915050565b6000602082840312156116505761164f610e82565b5b600061165e84828501611625565b91505092915050565b7f4e487b7100000000000000000000000000000000000000000000000000000000600052601160045260246000fd5b60006116a182610e8c565b91506116ac83610e8c565b9250828210156116bf576116be611667565b5b828203905092915050565b7f4e487b7100000000000000000000000000000000000000000000000000000000600052601260045260246000fd5b600061170482610e8c565b915061170f83610e8c565b92508261171f5761171e6116ca565b5b828206905092915050565b600081905092915050565b50565b600061174560008361172a565b915061175082611735565b600082019050919050565b600061176682611738565b915081905091905056fea26469706673582212206f475b8e921a8414f0d9bd2111d6c46691c4f27537e2879c6c87285c28ebfeb464736f6c63430008080033",
  "devdoc": {
    "author": "Carlos Vouking guided by Patrick Collins",
    "details": "made possible with chainlink vrf V2 subscription version and chainlink automation - keepers",
    "kind": "dev",
    "methods": {
      "checkUpkeep(bytes)": {
        "details": "cette function est invoke par le node chainlink. should normally UpkeepNeeded return 'true' Les conditions suivantes doivent tre vraies pour que 'UpkeepNeeded' == true 1rst condition:: L'interval de temps devra tre coul 2nd condition::  Il faudrait au moins un participant enregistr dans la lotterie 3rd condition::  la souscription Chainlink doit avoir assez de LINK 4th condition::  La lotterie doit tre encore en ouverte....Techniquement don't allow any new player to enter the lottery when waiting for the ranom winner. // checkData parameter can be very useful in making many advance things...                "
      },
      "performUpkeep(bytes)": {
        "details": "this function calls the 'checkUpKeep()' and excecutes if upKeepNeeded is true. returns an error is lottery is not open || if there are zero participants || if the subscription is empty."
      }
    },
    "title": "Basic lottery contract",
    "version": 1
  },
  "userdoc": {
    "events": {
      "LotteryEnter(address)": {
        "notice": "EVENTS "
      }
    },
    "kind": "user",
    "methods": {
      "constructor": {
        "notice": "FUNCTIONS "
      },
      "getParticipationFee()": {
        "notice": "VIEW & | PURE functions "
      }
    },
    "notice": "basic contract for a decentralized truly fair lottery",
    "version": 1
  },
  "storageLayout": {
    "storage": [
      {
        "astId": 246,
        "contract": "contracts/Lottery.sol:Lottery",
        "label": "s_participants",
        "offset": 0,
        "slot": "0",
        "type": "t_array(t_address_payable)dyn_storage"
      },
      {
        "astId": 263,
        "contract": "contracts/Lottery.sol:Lottery",
        "label": "s_recentRandomWinner",
        "offset": 0,
        "slot": "1",
        "type": "t_address"
      },
      {
        "astId": 266,
        "contract": "contracts/Lottery.sol:Lottery",
        "label": "s_lotteryState",
        "offset": 20,
        "slot": "1",
        "type": "t_enum(LotteryState)240"
      },
      {
        "astId": 268,
        "contract": "contracts/Lottery.sol:Lottery",
        "label": "s_previousTimeStamp",
        "offset": 0,
        "slot": "2",
        "type": "t_uint256"
      }
    ],
    "types": {
      "t_address": {
        "encoding": "inplace",
        "label": "address",
        "numberOfBytes": "20"
      },
      "t_address_payable": {
        "encoding": "inplace",
        "label": "address payable",
        "numberOfBytes": "20"
      },
      "t_array(t_address_payable)dyn_storage": {
        "base": "t_address_payable",
        "encoding": "dynamic_array",
        "label": "address payable[]",
        "numberOfBytes": "32"
      },
      "t_enum(LotteryState)240": {
        "encoding": "inplace",
        "label": "enum Lottery.LotteryState",
        "numberOfBytes": "1"
      },
      "t_uint256": {
        "encoding": "inplace",
        "label": "uint256",
        "numberOfBytes": "32"
      }
    }
  }
}